:020000040003F7
:10A00000F03C00201DA303002FA3030031A3030095
:10A010000000000000000000000000000000000040
:10A0200000000000000000000000000033A3030057
:10A03000000000000000000035A3030037A3030068
:10A0400039A3030039A3030039A3030039A3030094
:10A0500039A3030000000000A1CB030039A30300D3
:10A0600039A3030039A3030039A3030039A3030074
:10A0700039A3030039A3030039A3030039A3030064
:10A0800039A303006FC5030039A3030039A30300FC
:10A0900091C5030039A303001BD1030039A30300BA
:10A0A00039A3030039A303000000000000000000F2
:10A0B00000000000000000000000000000000000A0
:10A0C00000F002F800F03EF80CA030C80838241860
:10A0D0002D18A246671EAB4654465D46AC4201D1E0
:10A0E00000F030F87E460F3E0FCCB64601263342D4
:10A0F00000D0FB1AA246AB4633431847D0540000A9
:10A10000F0540000103A02D378C878C1FAD8520748
:10A1100001D330C830C101D504680C60704700001D
:10A120000023002400250026103A01D378C1FBD873
:10A13000520700D330C100D50B6070471FB51FBD5B
:10A1400010B510BD05F0CEF91146FFF7F7FF00F08E
:10A15000D8F905F0E6F903B4FFF7F2FF03BC05F008
:10A16000EBF90000144C144D0646064FF0B4034CB6
:10A17000024D024E014FF0B40748004700000000B6
:10A1800000000000000000210000000000000000AE
:10A190000000000000000000F9FFFFFF016881F3EC
:10A1A00008884068034AEFF305839A42DAD1024CEB
:10A1B000A646004700000000FFFFFFFF401E00BF53
:10A1C00000BF00BF00BF00BF00BF00BF00BF00BF97
:10A1D00000BF00BF00BFF1D170470000401E00BFAC
:10A1E00000BF00BF00BF00BF00BF00BF00BF00BF77
:10A1F00000BF00BF00BFF1D17047000070B5054639
:10A200000C46164602E00FCC0FC5103E102EFAD2B7
:10A21000082E02D303CC03C5083E042E07D301CC7D
:10A2200001C5361F03E021782970641C6D1C761E61
:10A23000F9D270BD32483349086070473248008C0B
:10A24000C0B2012812D13048808C0007000F0028CE
:10A250000CD12D48806AF0210840402806D12A48B8
:10A26000C06A0840002801D1012070470020FCE7A7
:10A270002548008CC0B201282CD12348808C0007CF
:10A28000000F002826D12048806AF02108400028CD
:10A2900006D11D48C06A0840002801D1012070473E
:10A2A0001948806AF0210840102806D11648C06A73
:10A2B0000840002801D10120F1E71348806AF0210D
:10A2C0000840302806D11048C06A0840002801D153
:10A2D0000120E4E70020E2E710B5FFF7C9FF0028FE
:10A2E00005D00A480A494860C8130A498861FFF73F
:10A2F000A5FF002802D001200749886010BD00009A
:10A300000024F40000280020C00F00F0DFFF07C089
:10A3100000050040006C0040000600400A4802684A
:10A3200003210A4302600948804709480047FEE7C5
:10A33000FEE7FEE7FEE7FEE7FEE700000548064908
:10A34000064A074B7047000024050040D9A20300CD
:10A35000C1A00300F0300020F03C0020F0340020C9
:10A36000F034002004460D4616460F2000F098F900
:10A3700032462946204603F0B7FD00BFFEE70446FB
:10A380000D462A462146EB48FFF7ECFF10B50820A2
:10A3900000F07DF9092000F07AF90A2000F077F941
:10A3A0000F2000F074F910BD10B5082000F07DF901
:10A3B000092000F07AF90A2000F077F90F2000F068
:10A3C00074F910BD70B500BFDB49012002F068FCD4
:10A3D000044600BF2546002D05D000BFD7A28F211F
:10A3E0002846FFF7BFFF00BF00BF70BD38B500BFF4
:10A3F000D548D64B052203210090002002F0CCF86E
:10A40000044600BF2546002D05D000BFCBA29821F1
:10A410002846FFF7A7FF00BF00BF38BD30B50720B3
:10A420000021032213048C00234305242407050282
:10A4300064198500635100BF30BD10B50446204645
:10A4400003F018F910BDF0B585B00746C04B0FCB2F
:10A450006C460FC4684618DF044600BF2546002D31
:10A4600005D000BFB5A2C4212846FFF77BFF00BF7F
:10A470001D20400313DF044600BF2546002D05D0F4
:10A4800000BFAEA2C8212846FFF76CFF00BF00BF87
:10A49000B04B4822B049082002F0F7FD054600BF46
:10A4A0002E46002E05D000BFA4A2CA213046FFF7D9
:10A4B00059FF00BF00BFA94802F026FE044600BFB6
:10A4C0002546002D05D000BF9CA2D4212846FFF7C9
:10A4D00049FF00BF05B0F0BD70B500BFA04A142110
:10A4E000082002F0EBF9044600BF2546002D05D0F8
:10A4F00000BF92A2DC212846FFF734FF00BF00BF57
:10A5000070BD00269748C069B12801D1012000E044
:10A5100000200546FFF73AFFFFF746FF00BF9248CD
:10A5200040691D214903884201D1012000E000203B
:10A530000746002F04D100BF80A2EC21FFF712FFD5
:10A5400000BF00BF01200007006901218902884285
:10A5500001D1012000E000200746002F04D100BFF8
:10A5600076A2ED21FFF7FEFE00BFFFF73FFFFFF7EA
:10A5700029FFFFF753FF00F015FF00F077FF0028D9
:10A5800022D000F083FF044600BF2746002F05D0ED
:10A5900000BF6AA2F8213846FFF7E4FE00BF0121A0
:10A5A00069400846FFF74FFFFFF796FF00F0C0FF36
:10A5B000044600BF2746002F05D000BF5FA2FE2142
:10A5C0003846FFF7CFFE06E0012169400846FFF755
:10A5D0003AFFFFF781FF2E46072064490969C14011
:10A5E000C907C90F002901D1012000E0002006435E
:10A5F000002E05D10720800300F0C6FD002823D1DE
:10A60000FF203DDF044600BF2746002F06D000BFD5
:10A610004AA2FF210E313846FFF7A4FE00BF0A20F0
:10A6200000F03EF800F0D3FE044600BF2746002F9E
:10A6300006D000BF41A2FF2114313846FFF792FE39
:10A6400000BF0A2000F031F80720800300F09CFDD5
:10A65000002805D0FFF7A8FE0720800300F0DDFEEC
:10A66000082000F022F8092000F01FF80A2000F06E
:10A670001CF80F2000F019F800F000F8BFF34F8F1E
:10A680003B483C49C860BFF34F8F00BFFEE7032142
:10A690000522120707231B02D2188300D1507047EE
:10A6A00001218140314A91607047012181402F4A48
:10A6B000D16070477CB504460D46009401952E4A42
:10A6C0000821684602F01BF97CBD10B52B4A002119
:10A6D000084602F014F910BDF8B504460D462646AA
:10A6E00000BF082D01D1012000E000200746002F07
:10A6F00005D100BF22A2FF211B31FFF733FE00BFAF
:10A70000316870688847F8BD70B506460C4600BFD2
:10A71000002C01D1012000E000200546002D04D1CD
:10A7200000BF23A29921FFF71DFE00BF02F059FCD4
:10A7300070BD0000EFBEADDE182900202E2E5C6D2E
:10A7400061696E2E63000000B5A603002C2900206D
:10A7500064F50300CBA603006C2B00203BA4030090
:10A76000B42B002000050040001000100005005030
:10A770000400FA0500ED00E0D9A6030009A70300D4
:10A780002E2E5C2E2E5C2E2E5C2E2E5C2E2E5C49E8
:10A790006E636C7564655C6170705F636F6D6D6F27
:10A7A0006E5C6170705F74696D65722E6800000088
:10A7B0002E2E5C2E2E5C2E2E5C2E2E5C2E2E5C49B8
:10A7C0006E636C7564655C73645F636F6D6D6F6EF3
:10A7D0005C736F66746465766963655F68616E64F7
:10A7E0006C65722E6800000010B504462046FFF725
:10A7F000D5FC10BD014901607047000000FC03005A
:10A80000F0B589B00D4614461E46F9480068002888
:10A810002DD0022D02D0042D27D10AE0F548006882
:10A82000052805D1324621460320F14B1B68984785
:10A830001CE0F0480068022816D11822EE4903A84F
:10A84000FFF7DCFC089907980191009003A80FC856
:10A8500000F0E8FC0320E749086032462146022068
:10A86000E34B1B68984700BF00E000BF00BF00BF7C
:10A870002746002F06D000BFE0A25D213846FFF733
:10A8800071FD00BF00BF09B0F0BD10B588B004462F
:10A890000120DF490870062002900799069801916F
:10A8A000009002A80FC800F0BDFC08B010BD70B544
:10A8B000D7480078002801D0082070BDD54800682E
:10A8C00001F05FFF044600BF2546002D06D000BF03
:10A8D000CAA280212846FFF745FD00BF00BF002225
:10A8E0000F218904CB48006801F01AFF044600BF1D
:10A8F0002546002D06D000BFC0A283212846FFF7C1
:10A9000031FD00BF00BF2046D7E770B50646C248FC
:10A91000C24908600220B7490860C1480168BE48C2
:10A9200003F0A3FA044600BF2546002D06D000BF61
:10A93000B2A299212846FFF715FD00BF00BF70BDE8
:10A9400010B50446B748B54908600320A949086016
:10A95000A7480068002805D0002211460220A44B19
:10A960001B68984710BD30B503460020AE494968C2
:10A970000722920391420ED9AC49AB4C646815464C
:10A98000621B14468C43204614460C40002C01D018
:10A990004C1C001900BF30BD00B589B001200390E8
:10A9A000A3480088694608820720800308909E48D3
:10A9B000406805909C48806806909B48C068079056
:10A9C000089907980191009003A80FC800F02AFC8D
:10A9D000002009B000BD30B589B09348C1688E48E9
:10A9E00003F043FA044600BF2546002D06D000BF01
:10A9F00082A2F3212846FFF7B5FC00BF00BF8A48BA
:10AA0000C268884800234168834803F0FCF9044683
:10AA1000002C10D10390864800886946088282483D
:10AA2000C0680790089907980191009003A80FC883
:10AA300000F0F8FB00BF204609B030BD00B589B07A
:10AA4000032003907A480088694608827648406867
:10AA500005907548806806907348C068079008990B
:10AA600007980191009003A80FC800F0DBFB0020BD
:10AA700009B000BD70B594B05F4918314A680868E4
:10AA800089680492059103902B26360300206949BA
:10AA9000087067490880604903A803F091F90446EB
:10AAA000002C05D0002053490860204614B070BD2A
:10AAB00007208003584948605A480A4606CA06C01B
:10AAC0002B200003574948600CA800F045FD0E9864
:10AAD000FE2803D13068401C002816D00F2109033E
:10AAE000504803F0C2F90446002C04D0002041492C
:10AAF00008602046DAE7052006900B990A98019134
:10AB0000009006A80FC800F08DFB4B4A0021414879
:10AB100001F0BFFD044600BF2546002D07D000BF51
:10AB200036A2FF214C312846FFF71CFC00BF00BFB6
:10AB300000220F2189043748006801F0F1FD044626
:10AB400000BF2546002D07D000BF2CA2FF215031A9
:10AB50002846FFF707FC00BF00BF00203749086008
:10AB60000120244908600020A0E7214908607047BF
:10AB700070B505462C486E684ECE4EC01038007831
:10AB80000421084000280DD027480078C007C00FD6
:10AB9000002805D12448007802210840002801D06F
:10ABA000062070BD204800798007800F00280BD157
:10ABB0001D48007A8007800F002805D11A48007BC5
:10ABC0008007800F002801D00620EAE71648406879
:10ABD0001549896840181449C96840181049086027
:10ABE0001148806817218902884229D90C20D8E7AA
:10ABF000302800200828002074F503002E2E5C6405
:10AC000066755F6475616C5F62616E6B2E630000D8
:10AC10001828002014280020242800202C28002098
:10AC20000C2800201C280020042D0020FF03000019
:10AC300012280020102800208BA8030004280020E0
:10AC4000FC480078C007C00F00280DD0FA48006803
:10AC500077218902884201D90C20A2E7F748F849F8
:10AC60000860F848486017E0F34800680F210903BE
:10AC7000884201D90C2094E7F348F1490860ED4877
:10AC8000007802210840002803D0F048EC494860D1
:10AC900002E0EF48EA494860EE48006801280CD11C
:10ACA000FFF705FE0446002C01D0204679E7E44872
:10ACB0000168E1480068884701E0082400BF00BF40
:10ACC00020466EE7F8B50446002C01D10E20F8BDF1
:10ACD000A0688107890F002901D1012100E000212E
:10ACE000002901D11020F2E7DA480068032804D0D7
:10ACF000042803D0052838D104E000BF0520D54939
:10AD0000086000BF60688600D34800688019CA499F
:10AD10000968884205D90020C043CF4908600C204B
:10AD2000D5E7FFF7C4FD0546002D01D02846CEE744
:10AD3000A768C948324639460368C848006803F026
:10AD400062F80546002D01D02846C0E7C2480068D9
:10AD50008019C149086008460068B74909688842F7
:10AD600001D0092500E0002501E0082500BF00BF53
:10AD70002846ACE770B50646B6480068032802D0FE
:10AD8000042824D103E00420B249086000BFB2487F
:10AD90000068002801D0082070BDFFF788FD044638
:10ADA000002C01D02046F7E700250CE0A900B06890
:10ADB0004158AB4802780078401CA94B18709000AD
:10ADC000A84A11506D1C7068A842EFD801E0082411
:10ADD00000BF00BF2046DFE770B59E480068052829
:10ADE0002FD106209B4908609B480068924909685A
:10ADF000884201D0082423E0FFF759FD0446002CC7
:10AE00001ED196490968002248688B49096802F0FA
:10AE1000BDF89549088000BF9248057801464978F9
:10AE200009020D4300BF8E480078002805D08E48E7
:10AE30000088A84201D00B2070BD0720854908601A
:10AE400001E0082400BF00BF2046F5E770B5814847
:10AE50000068072815D18548006801F092FC044677
:10AE600000BF2546002D06D000BF814A81492846F3
:10AE7000FFF778FA00BF00BF714948688047044671
:10AE800001E0082400BF00BF204670BD00B589B0B6
:10AE900007200390089907980191009003A80FC814
:10AEA00000F0C0F909B000BD7FB504460E46154656
:10AEB0000320009001940296A9080391684618DFC8
:10AEC00004B070BD7FB504460E46154601200090C3
:10AED00001940296A9080391684618DF04B070BD7A
:10AEE000FFB581B007460E461C4631463846039AE8
:10AEF000FFF7DAFF0546002D02D1284605B0F0BD68
:10AF00000120000386420AD9311B381B2346224602
:10AF1000FFF7E6FF0546002D01D02846EEE7314653
:10AF20003846039AFFF7CEFF0546002D01D028468C
:10AF3000E4E731463846039AFFF7B6FFDEE7F0B59F
:10AF40008BB003A800F008FB0798002801D10BB0D4
:10AF5000F0BD01210903079840180A99884230D9A9
:10AF6000012424030A98001B450807990A984018F1
:10AF7000029069000A9847186800001901900320A0
:10AF8000000380680799884213D26119601904226E
:10AF9000FFF798FF0646002E01D03046D7E704227F
:10AFA00021462046FFF78EFF0646002E01D0304690
:10AFB000CDE70298C21B2B4638460199FFF790FF58
:10AFC000C5E70798002806D001210903079A0A98C7
:10AFD000FFF778FFBBE70020B9E710B58CB004A8F5
:10AFE00000F0BAFA0998002813D00898002802D176
:10AFF0002B20000302E008990B984018044600201B
:10B0000000900194099881080291684618DF0CB0FD
:10B0100010BD0020FBE710B58CB004A800F09CFA2E
:10B020000998002839D00898002825D12B20000342
:10B0300025E00000042D00200C2800200BA90300AF
:10B040003428002099A9030041A903003DAA030068
:10B05000D7A9030008280020042800202C2800205D
:10B0600010280020142D0020122800201428002071
:10B07000FCAB03006902000008990B9840180446D5
:10B08000032000901D20400301900294099881083C
:10B090000391684618DF0CB010BD0020FBE7F0B547
:10B0A0008DB005A800F058FA0998002801D10DB01C
:10B0B000F0BD01210903099840180C9988421CD958
:10B0C00001252D030C98401B440809990C9847183A
:10B0D00061000C984618600040190090032000039E
:10B0E00080680999884201D20E20E0E7BA1B234606
:10B0F00030460099FFF7F4FED9E7032001900120C4
:10B10000000302900C99039109988108049101A809
:10B1100018DFCCE7F8B50D461446069FFB480068DB
:10B12000012804D1022D02D10220F849086000BF95
:10B130002646002E06D000BFF5A242213046FFF77A
:10B1400011F900BF00BFF8BD70B500BF40DF044675
:10B1500000BF2546002D06D000BFEDA25421284691
:10B16000FFF700F900BF00BF01F06AFCE748006884
:10B17000022807D0E5480068032803D0E3480068A8
:10B18000042800D170BDE1E7F8B504462068401CF2
:10B19000002800D1F8BD00256846FFF72BFB00987A
:10B1A0000068012815D1002600988088002807D063
:10B1B00000980022C1680720800301F0E7FE0646E0
:10B1C00000988088B04201D1012000E000200546AF
:10B1D00000BF2846DEE770B505462021D04802F0C2
:10B1E0007DFD044600BF2646002E06D000BFC8A243
:10B1F00089213046FFF7B6F800BF00BF00232022A8
:10B200002946C74802F019FC044600BF2646002E16
:10B2100006D000BFBEA28F213046FFF7A3F800BFC3
:10B2200000BF70BD0FB438B56846FFF7E3FA049865
:10B23000002810D16846808ABA4988800898C8607A
:10B2400001200860FF2088600120B0490860B548EF
:10B25000FFF7C1FFA2E0049801281FD16846808A49
:10B26000B049888007990698401808994018AD4958
:10B27000C860A5200860FF208860069808610798CC
:10B28000486108988861089888610998C861012018
:10B290009E490860A348FFF79EFF7FE004980328BB
:10B2A00018D1009800689F490860009880888880BD
:10B2B0000098C068C860AA2088600698086107984E
:10B2C0004861089888610120904908609548FFF717
:10B2D00082FF63E00498022811D100209149888000
:10B2E000C860FF20086088600020086148618861AC
:10B2F0000120864908608B48FFF76DFF4EE00498F7
:10B30000062812D103F002FD044600BF2546002D99
:10B3100006D000BF7EA2D3212846FFF723F800BF46
:10B3200000BF03207949086038E0049804280CD154
:10B3300000207C498880C860FE20086000988068F2
:10B3400088600846FFF747FF28E0049805280FD1DA
:10B350000098006873490860009880888880009889
:10B36000C068C860FE2088600846FFF734FF15E01B
:10B370000498072812D103F0C9FC044600BF2546F3
:10B38000002D06D000BF62A2ED212846FEF7EAFF9D
:10B3900000BF00BF04205D49086000BF38BC08BC86
:10B3A00004B018473EB5604800902020019001206D
:10B3B000029002F002FA0446002C01D020463EBD65
:10B3C0005749684602F030FA04462046F7E710B5C0
:10B3D000FFF750FB0446002C01D0204610BD03F0BF
:10B3E000DFFE0446FFF7B0FE2046F7E700204F4A95
:10B3F00011680FE0012282400A40002A09D000BFF4
:10B40000C306DB0E01229A40484B80331A6000BF0E
:10B4100000BF401C2028EDD3704770B5064611DFF1
:10B42000044600BF2546002D07D000BF38A2FF21EB
:10B430003B312846FEF796FF00BF00BFFFF7D6FF5F
:10B440000720800313DF044600BF2546002D07D0E8
:10B4500000BF2FA2FF2140312846FEF783FF00BF27
:10B4600000BF07208003FFF7BFF970BD08B568462D
:10B47000FFF7C0F900980068A52803D000988068FD
:10B48000AA2801D1012008BD0020FCE770B5FFF714
:10B4900006FE002804D1FFF7BEFD002800D170BDD4
:10B4A000642002F013FDFFF74AFD044600BF254665
:10B4B000002D07D000BF16A2FF2165312846FEF7F8
:10B4C00051FF00BF00BFFFF7EAFD044600BF25465D
:10B4D000002D07D000BF0EA2FF2168312846FEF7DD
:10B4E00041FF00BF00BFFFF778FD044600BF2546BF
:10B4F000002D07D000BF06A2FF216B312846FEF7C2
:10B5000031FF00BF00BF2046C9E7000044280020EB
:10B510002E2E5C626F6F746C6F616465722E6300B7
:10B520003C280020542D002015B1030000E100E06C
:10B5300000B589B01822164903A8FEF75FFE0899E6
:10B5400007980191009003A80FC8FFF76BFEFFF763
:10B55000FBFD002009B000BD10B588B004460023F3
:10B5600020220C49684602F040FB009820606846A3
:10B570008088A0800398E0600298A0600498206111
:10B58000059860610698A0610798E06108B010BD59
:10B5900098F503003C28002002460A70FF200002B4
:10B5A0001040000A4870FF2000041040000C887012
:10B5B000100EC8700420704710B58EB004461C21D0
:10B5C00007A803F0A6FE6846007F04218843011DFA
:10B5D00068460177002008900A900B900C900D901F
:10B5E000217968468171FE4981800020009000BF6A
:10B5F0006846007801090901684601700078F02169
:10B6000088436946087000BF00BF6846407801095A
:10B610000901491C684641704078F0218843103088
:10B620006946487000BF6846807806218843811CBF
:10B630006846817080780821884301466846817099
:10B6400080781021884301466846817080784108DF
:10B650004900491C68468170142102A803F059FE74
:10B6600001A80290684603900021018241821421C2
:10B670008182002006906088A31D02AA07A9A2DF8C
:10B680000EB010BD10B58EB004461C2107A803F003
:10B6900040FE6846007F08218843411868460177CC
:10B6A000007F1021884341186846017700200890E8
:10B6B0000A900B900C900D90217968468171C849D1
:10B6C000491E81800020009000BF68460078010973
:10B6D0000901684601700078F021884369460870C6
:10B6E00000BF00BF6846407801090901491C68464F
:10B6F00041704078F021884310306946487000BF9F
:10B700006846807806218843811C6846817080786D
:10B71000082188430146684681708078102188435B
:10B72000411868468170807841084900491C684684
:10B730008170142102A803F0ECFD01A80290684674
:10B74000039000210182418217218182002006900E
:10B75000608823460E3302AA07A9A2DF0EB010BDEF
:10B760008A8802807047FEB5044602200190608AF4
:10B770006B4601AA0021A5DF0546002D07D0606AAF
:10B78000002802D02846616A88470020FEBD6E4628
:10B79000304600F010FA0746F807C00F00BFF5E783
:10B7A00070B586B004460D461646002C02D10E2018
:10B7B00006B070BD20888B49884203D08A48007843
:10B7C000002801D10820F3E70021019110216846EB
:10B7D0008288501C83B285480193815468468288D0
:10B7E000501C83B281480193855468468288501C5E
:10B7F00083B27E4801938654002002900390049007
:10B800000590E189684601810121817200218181D1
:10B8100001A8049075480590208802A9A6DFC7E713
:10B8200070B588B004460D4602206946087420466B
:10B83000FFF799FF002808D1FF20FE306946888273
:10B84000208804A9A8DF08B070BD0020694688825E
:10B85000208804A9A8DF0646002E01D03046F2E772
:10B8600000BFA87E030003F06EFE0960061A2128BF
:10B870002F36593D600000200190288B022803DA02
:10B8800000206946087205E00120694608722846D2
:10B890001B30039001A92046226A90474BE001200B
:10B8A000019001A92046226A904744E002200190BD
:10B8B00001A92046226A90473DE00320019001A99A
:10B8C0002046226A904736E00420019001A92046D4
:10B8D000226A90472FE00520019001A92046226AA4
:10B8E000904728E0288B032805DA03220821204608
:10B8F000FFF756FFA7E728461B3000F05CF96946C2
:10B9000008810889002802D10720019001E0062063
:10B91000019001A92046226A90470CE0092001907D
:10B9200001A92046226A904705E0A97E032220460D
:10B93000FFF736FF87E700BF002084E7F8B504462D
:10B940000E46B51D2878022811D16888E189884201
:10B950000DD1A91C2046FFF763FF0746002F05D035
:10B96000606A002802D03846616A884700BFF8BD87
:10B970003EB505460C46E088E98888420BD1082090
:10B980000090A07F6946087120462030029028462A
:10B990002A6A904700BF3EBD0022D2430280704712
:10B9A00070B586B004460D46002C04D0002D02D0A0
:10B9B0002868002802D10E2006B070BD0020C043C8
:10B9C00020800B4B0FCB01AE0FC60548801E694689
:10B9D0008882163101A862DF0646002E0CD009E0ED
:10B9E00032150000FFFF00004828002049280020F1
:10B9F000B0F503003046DFE7A21C05A90120A0DF57
:10BA00000646002E01D03046D6E76846807D20717C
:10BA10002046FFF7D1FD0646002E01D03046CBE789
:10BA20002046FFF72FFE0646002E01D03046C3E722
:10BA3000286820626868002801D068686062012078
:10BA4000604908700020B7E770B505460C46002D28
:10BA500001D0002C00D170BD286A00281FD020889A
:10BA6000102806D011280ED0502807D0512814D104
:10BA70000EE021462846FFF773FE0FE021462846D8
:10BA8000FFF776FF0AE021462846FFF785FF05E02D
:10BA900021462846FFF752FF00E000BF00BF00BF6D
:10BAA000D9E730B585B004460D46002C02D10E20F2
:10BAB00005B030BD20884449884203D04148007811
:10BAC000002801D10820F3E70021009110216846E9
:10BAD0000288501C83B23D48009381540721684678
:10BAE0000288501C83B23948009381540121684672
:10BAF0000288501C83B23548009381540246684640
:10BB0000008811182846FFF747FD0146684600885F
:10BB1000081881B2009100200190029003900490D7
:10BB2000E1896846818001218171002101810390B2
:10BB300026480490208801A9A6DFB9E730B585B072
:10BB400004460D46002C02D10E2005B030BD2088E1
:10BB50001D49884203D01B480078002801D10820E5
:10BB6000F3E700210091112168460288501C83B23E
:10BB700016480093815402466846008811182846EA
:10BB8000FFF70AFD014668460088081881B2009157
:10BB900000200190029003900490E1896846818022
:10BBA00001218171002101810390084804902088BF
:10BBB00001A9A6DFC9E7014608784A7812021043B6
:10BBC0007047000048280020FFFF0000492800209F
:10BBD00000206D4908706D486D4908600820486074
:10BBE00000208860C8600861486188617047002053
:10BBF00070470246002A01D10E2070476248007843
:10BC0000002806D10120604B1870624810600021A6
:10BC100000E004210846F0E700205B490870704707
:10BC200030B50346002901D10E2030BD0020086048
:10BC300057484068002824D0202B20D8544840681A
:10BC4000401E534C60602046C068401CE0602046A7
:10BC50000468006924256843201808604C488069FE
:10BC60004B4C257C0124AC402043494CA06120462C
:10BC7000007C401C4007400F2061002202E00C22A3
:10BC800000E004221046D0E730B50346404CA468DB
:10BC9000002C3AD010203E4C247D3D4D2D7A641B63
:10BCA0006107490F0A4600BF394C256824244C43DC
:10BCB0002C199C4208D1364CA46901258D406C405A
:10BCC000334DAC61002006E04C1C6107490F304C3D
:10BCD00064698C42E8D100BF0BE02D4CA468641E5F
:10BCE0002B4DAC602C466468641C6C604C1C620775
:10BCF000520F274CA469012595402C40002C05D1FA
:10BD0000234CA468002CE8D100E0042030BD01469B
:10BD10001F48007C401E4207520F1D480368242024
:10BD20005043181801620020704730B50246002ABF
:10BD300001D0002901D10E2030BD1548C06800286F
:10BD40001FD01348C068401E114CE0602046806838
:10BD5000401CA060204604684069242568432018E0
:10BD600010600B480468406968432018006A086046
:10BD70000748007D401C4007400F054C60610023D0
:10BD800000E004231846D7E750280020742D002037
:10BD9000942E00205128002010B5002819DAFB4A03
:10BDA00003071B0F083B9B089B00D2588307DC0E40
:10BDB000FF23A3409A438B071B0E8407E40EA34086
:10BDC0001A43F24B0407240F083CA408A4001A519C
:10BDD00018E0EF4A03231B02D21883089B00D258B5
:10BDE0008307DC0EFF23A3409A438B071B0E8407B7
:10BDF000E40EA3401A43E64B032424021B198408D3
:10BE0000A4001A5110BD10B50446E2488460032115
:10BE10001120FFF7C1FF10BD10B501200004DE495D
:10BE20004860DD4940394860112000F0F5FC1120E0
:10BE300000F0E4FC0120D94908602F20FEF7BEF98C
:10BE40000120D749087010BD10B511200121814093
:10BE5000CF4A8032116000BF01200004CE498860C3
:10BE6000CD49403988600120CC4948602F20FEF739
:10BE7000A5F90120C94988600020CA4908602F201F
:10BE8000FEF79CF90020C649087010BDF0B50246C7
:10BE900028205043C44B1B68C118C4480068401C8C
:10BEA000002802D1C148026059E0C0488B68006890
:10BEB00028246043BC4C246800198068834217D84A
:10BEC000BA48006828235843B74B1B68C0188068DD
:10BED0008B68C31AB548006828246043B24C2468B4
:10BEE00000198360B14800684862B048026036E0DB
:10BEF0008B68AE4D2C6828680DE028254543AA4E76
:10BF00003668AD19AD685B1B044628254543A64E2F
:10BF10003668AD19686A451C002D07D028254543B1
:10BF2000A14E3668AD19AD689D42E6D3451C002D83
:10BF30000CD0282545439C4E3668AD19AD68EE1AE5
:10BF400028254543984F3F68ED19AE608B604862E5
:10BF500028256543944E3668AD196A6200BFF0BD6E
:10BF6000F8B50646914805682C4609E0B44200D170
:10BF700009E02546282060438B4909684018446A37
:10BF8000601C0028F2D100BF601C002800D1F8BD61
:10BF9000A54210D185480068282148438249096894
:10BFA0004018406A8149086008460068401C002823
:10BFB00001D1FFF749FF282060437B4909684018F9
:10BFC000876828206043784909684018416A28201A
:10BFD0006843754A12688018416228206843724994
:10BFE00009684018446A601C00280CD0282060436F
:10BFF0006D49096840188068C119282060436A4A61
:10C0000012688018816000BFC1E710B5112000F0F0
:10C01000FCFB10BD10B5142000F0F7FB10BD70B58F
:10C02000044663480068002813D0614A216AE06929
:10C0300012689047054600BF2E46002E07D000BF6D
:10C040005CA2FF2164313046FEF78CF900BF00BFCF
:10C0500002E0E169206A884770BDF8B5534800687E
:10C06000401C00283AD0002700F008FC04464D4848
:10C070000168204600F005FC06464C48056811E0C2
:10C0800028206843484909684418A068B04200D98C
:10C090000BE0A068361AA068C719656A2046FFF74A
:10C0A000BEFF00BF681C0028EAD100BF4D480078E1
:10C0B0004D490978884209D14B480078401CC0B2EC
:10C0C00049490870022801D10020087046480078CC
:10C0D000800046490F50FFF79DFF00BFF8BD0146A5
:10C0E00040480078404A127890421DD03D48007880
:10C0F000401C3C4A107010460078022801D10020F4
:10C100001070384800788000384A10580860254A76
:10C11000086812688018234A106010460068000200
:10C12000000A1060012070470020086000BFFAE795
:10C13000FEB51E48006801902D480078009076E01A
:10C140000098C0002B490968441825786BE0182036
:10C15000684361680F18681CC5B2A078A84200D176
:10C1600000253868022802D0032859D144E028214C
:10C17000786848430C4909684618307E002804D086
:10C180007868FFF7EDFE002030764AE01CED00E015
:10C1900000E100E0001501404013014000100140A3
:10C1A000802800206C2800205C28002068280020BF
:10C1B0007C2800202E2E5C2E2E5C2E2E5C2E2E5CDB
:10C1C0002E2E5C536F757263655C6170705F636F78
:10C1D0006D6D6F6E5C6170705F74696D65722E63FA
:10C1E0000000000078280020792800207028002016
:10C1F00060280020642800200CE0F8490968282203
:10C200005143F74A1268881800210176F34A416ABF
:10C21000116000BFF1480068401C0028EDD100E02B
:10C2200000BF00BF00BF6078A84290D100BF009857
:10C23000411EC9B20091002882D1E84801680198E6
:10C24000814201D00120FEBD0020FCE7F0B503468D
:10C25000002426E0E14E366828277E43E04F3F6801
:10C26000F01986689E4203D98668F61A86601DE03A
:10C2700086689B1B86683419002686600676D74E32
:10C280003568D64F466A3E604669002E08D00E19C2
:10C290003602360AC660466906611668466215604F
:10C2A00000BFCE480068401C0028D3D100BFF0BDBD
:10C2B000FEB50746C94800680290CA480078019058
:10C2C0006BE00198C000C849096845185DE0781C1A
:10C2D000002807D03E4628207043C1490968441809
:10C2E000676A23E02978182359436A685018297827
:10C2F000491C29702978AA78914201D1002129701E
:10C30000466828217143B64A12688C1801680129D1
:10C3100002D1217E002900D037E08168E160C16848
:10C320002161016961614169216200BFAF49E06833
:10C330000968401A0002000AAD49884208D2AB4998
:10C34000E068096800F09DFA21694018A06011E0DA
:10C35000A648E168006800F094FA0090216900980E
:10C36000814204D921690098081AA06001E00020E8
:10C37000A06000BF0020E060206101202076801EC8
:10C3800060623046FFF782FD00BF781C00289ED116
:10C390002878697888429AD100BF0198411EC9B2B5
:10C3A000019100288DD18D4801680298814201D009
:10C3B0000120FEBD0020FCE7FEB588480068401C57
:10C3C000002834D0854800682821484384490968FA
:10C3D0004018856800F052FA0190844804682146AC
:10C3E000019800F04EFAC61C82480078002801D15E
:10C3F000FFF712FDAE4201D2284600E03046041994
:10C400002402240A20467C49086000BF00F036FA66
:10C4100000900199009800F034FAC71C2046019959
:10C4200000F02FFA874201D9FFF7EFFD01E0FFF797
:10C430000BFDFEBDFEB50020C04301906B480468B3
:10C44000664807686846FFF74AFE0546FFF770FE34
:10C450000646002D05D001AA21460098FFF7F6FEFA
:10C4600001260198FFF724FF002800D00126002EA6
:10C4700002D03846FFF7A0FFFEBD4170704770B58F
:10C4800002460B465078411C9078884200D100212A
:10C490001078884201D1002070BD196050781826AC
:10C4A000704355682C182046F6E7FFB581B0054665
:10C4B0000E461746E9004C4A126888186946FFF78D
:10C4C000DEFF0446002C02D1042005B0F0BD01209F
:10C4D0002060666000F0D2F9A060E76004982061F7
:10C4E0000A986061E900404A126888180099FFF7CD
:10C4F000C4FFFFF78FFD0020E7E7F8B504460E46BE
:10C50000E100394A126888186946FFF7B8FF054606
:10C51000002D01D10420F8BD022028606E60E100EA
:10C52000314A126888180099FFF7A7FFFFF772FDDC
:10C530000020F0E738B50446E1002B4A126888185D
:10C540006946FFF79CFF0546002D01D1042038BD48
:10C5500003202860001F6860E100234A12688818E1
:10C560000099FFF78AFFFFF755FD0020EFE710B5B0
:10C570000020224908600021204841608160C1609C
:10C5800000201E49403908604860FFF766FD10BD75
:10C5900010B5FFF74FFF10BDFFB581B00E4617462F
:10C5A0001C4620468107890F002901D1012100E0A6
:10C5B0000021002902D1072005B0F0BD002C01D1D7
:10C5C0000720F9E7FFF740FC0D490A9808600D487D
:10C5D000067003480460002523E00000682800205E
:10C5E0005C28002060280020642800206C2800209F
:10C5F000FFFF7F00802800204015014040110140CE
:10C600007C280020582800200021282068439F4AC9
:10C6100012681150282068439C4A126880180176DD
:10C620006D1CB542F0DB28207043041903209849A3
:10C63000087098480460183400250CE0E900954A19
:10C6400012688818002101704170877044601821B9
:10C6500079430C196D1C032DF0DB0020C0438E497B
:10C66000086000208D4908708D490870142000F082
:10C67000D3F803211420FFF78FFB142000F0BEF83D
:10C680000198FFF7C0FB00F0F9F886490860002028
:10C6900092E770B503460C467C480068002801D13B
:10C6A000082070BD002A01D10720FAE7002B01D134
:10C6B0000720F6E700211CE028204843734D2D6831
:10C6C0002858002814D10125282048436F4E366889
:10C6D0003550282048436D4D2D684019446028206E
:10C6E00048436A4D2D684019C26119600020D8E79F
:10C6F000491C6D4800788142DEDB0420D1E710B58B
:10C7000000F092F8012802D0032804D101E00024AF
:10C7100003E0012401E0022400BF00BF204610BD59
:10C72000FEB504460D46164658480068002801D15B
:10C730000820FEBD5C480078844201D2052D01D25C
:10C740000720F6E728206043504909680858012867
:10C7500001D00820EDE7282060434C4909684018C3
:10C760004068012801D1284600E000200746FFF775
:10C77000C6FF3B462A46214600960190FFF795FEEC
:10C78000D7E770B5044641480068002801D1082069
:10C7900070BD45480078844201D30720F8E728207F
:10C7A00060433A4909680858012801D00820EFE79A
:10C7B000FFF7A5FF05462146FFF79FFEE8E710B506
:10C7C00032480068002801D1082010BDFFF797FF0C
:10C7D0000446FFF7AFFEF8E710B5044600F04EF848
:10C7E0002060002010BD70B505460E461446314647
:10C7F000284600F046F82060002070BDC206D20E28
:10C8000001219140294A11607047C206D20E0121D0
:10C810009140274A11607047C206D20E0121914013
:10C82000234A80321160704710B522484068C10524
:10C83000C90D002920D00A46103A104600280DDA0A
:10C840001C4B1C330407240F083CA408A4001B59EC
:10C850008407E40EE3401B069B0F0BE0134B0324FD
:10C8600024021B198408A4001B598407E40EE3402A
:10C870001B069B0FD8B210BD0420FCE70E48406891
:10C8800070470246501A0002000A70475C280020D8
:10C8900060280020642800206828002078280020D4
:10C8A000792800206C2800205828002000E100E0B2
:10C8B00000E200E000ED00E00015014030B5034665
:10C8C000481CC004040C10468507AD0F002D01D193
:10C8D000012500E00025002D01D1072030BD7A4858
:10C8E00002601019794D28600020794D2870794D2B
:10C8F000287079480380794801800020EEE7F7B579
:10C9000084B00C467448008884426BDC744D00206F
:10C91000039000F0A4F802900298012814D003A814
:10C920002EDF0746022F01D172B60CE000BF01973F
:10C93000019F002F06D000BF6AA259210198FDF780
:10C9400011FD00BF00BF00BF6148007800F0B1F8E2
:10C9500060490978884206D05D480578007800F083
:10C96000A8F85B4908700298012814D062B668469E
:10C97000007B2FDF0746022F0CD000BF0197019FDD
:10C98000002F06D000BF57A261210198FDF7EAFCF5
:10C9900000BF00BF00BF5248854221D0E9004A4A8B
:10C9A0000698126850500498002811D0002C0FDD12
:10C9B000494909886943454A1268881822460499FA
:10C9C00002F048FCE800404909684018848005E00E
:10C9D0000020E9003C4A126889188880002600E09F
:10C9E000042600E00926304607B0F0BDF8B505463C
:10C9F0000E461746052000903548007835490978DD
:10CA000088421BD033480478007800F052F831494E
:10CA100008703148008860432C4909684018286034
:10CA2000E00029490968401880883080E0002649E4
:10CA30000968085838600020009000BF0098F8BDD1
:10CA40000EB504E068468188009A029890476A46CD
:10CA500001A902A8FFF7CAFF0028F3D00EBD10B548
:10CA60002D484068C105C90D002920D00A46103A5A
:10CA7000104600280DDA284B1C330407240F083C0D
:10CA8000A408A4001B598407E40EE3401B069B0F77
:10CA90000BE0224B032424021B198408A4001B5919
:10CAA0008407E40EE3401B069B0FD8B210BD0420A0
:10CAB000FCE7014609480088814201DA481C00E091
:10CAC0000020C0B270470000842800208828002081
:10CAD0008D2800208C2800208E28002090280020FF
:10CAE000FFFF00002E2E5C2E2E5C2E2E5C2E2E5C68
:10CAF0002E2E5C536F757263655C6170705F636F3F
:10CB00006D6D6F6E5C6170705F7363686564756C8A
:10CB100065722E630000000000ED00E000E100E01F
:10CB2000F0B502460C46002037E001238340194649
:10CB300023460B40002B2FD0D5680D40002D05D18A
:10CB400001235B04D5680D43D56004E003231B0477
:10CB5000D5688D43D56005252D0707263602AD190A
:10CB60008600AD5903263604B54305263607072748
:10CB70003F02F6198700F55105252D0707263602D5
:10CB8000AD198600AD591D430526360707273F021C
:10CB9000F6198700F55100BF401C2028C5D3F0BD11
:10CBA000F0B585B0EF4805690020EF49C86300265D
:10CBB0003FE014207043ED49096844180120B0405B
:10CBC000EB4909680840002831D0E068C04368405C
:10CBD00021680840074639462046FFF7A1FFE14893
:10CBE000006968400390039800280ED0039805431D
:10CBF000E068C043684021680840009020460099E2
:10CC0000FFF78EFF0098074300BFA068A843384095
:10CC100001906068284038400290019902980843CA
:10CC2000002803D0226901990298904700BF701C28
:10CC3000C6B2D04800788642BBDB05B0F0BD10B567
:10CC40000146002029E014224A43C84B1B689A5829
:10CC5000012383401A40002A1ED005221207072311
:10CC60001B02D2188300D25803231B049A430523C6
:10CC70001B07072424021B1984001A5105221207DE
:10CC800007231B02D2188300D25805231B07072451
:10CC900024021B1984001A51401C2028D3D310BD34
:10CCA00070B505460C46002C01D1072070BD20460A
:10CCB0008107890F002901D1012100E0002100290D
:10CCC00001D10720F2E7A9480460AB4805700020B5
:10CCD000A8490870A6490860A74800781422504364
:10CCE0000146A248006802F014FB0020C043A3499B
:10CCF0008860062001218140A14A116000BF012106
:10CD000000F0F9F80620012181409E4A116000BF21
:10CD10000020CBE7F8B504460D4616461F4693485B
:10CD20000068002801D10820F8BD002F01D107209C
:10CD3000FAE79048007890490978884201DB04209E
:10CD4000F2E7284630438B49097814225143874A39
:10CD50001268505087480078142148438349096875
:10CD60004018456083480078142148437F4909688A
:10CD7000401886607F480078142148437B49096841
:10CD8000401807617B48007820707A480078401C82
:10CD9000784908702078FFF752FF0020C4E7F0B50B
:10CDA000024672480068002801D10820F0BD714891
:10CDB0000078824201DB0720F8E700206A4BD86345
:10CDC000684804696A480068002802D158066B4B1D
:10CDD000586001209040664B1B681843644B1860F4
:10CDE000002314205043614D2D684019C360002179
:10CDF00042E001238B401846142353435B4D2D68BA
:10CE0000EB580340002B36D025460540002D02D0BC
:10CE100003231B040EE001235B0414255543534EEA
:10CE20003668AD19ED680543142656434F4F3F68E9
:10CE3000F619F56005252D0707263602AD198E0077
:10CE4000AD5903263604B5430526360707273F02AA
:10CE5000F6198F00F55105252D0707263602AD1965
:10CE60008E00AD591D430526360707273F02F619E8
:10CE70008F00F55100BF491C2029BAD3002095E747
:10CE800010B5044639480068002801D1082010BDBB
:10CE900038480078844201DB0720F8E72046FFF796
:10CEA000CEFE0120A040324909688143304801602C
:10CEB0000068002803D10120C007304988600020A5
:10CEC000E5E710B5024629480068002801D108208E
:10CED00010BD28480078824201DB0720F8E71420C3
:10CEE0005043224C246803191E4800691C682040E6
:10CEF00008600020ECE710B5002819DA224A030781
:10CF00001B0F083B9B089B00D2588307DC0EFF23B6
:10CF1000A3409A438B071B0E8407E40EA3401A43D9
:10CF2000194B0407240F083CA408A4001A5118E068
:10CF3000144A03231B02D21883089B00D25883078C
:10CF4000DC0EFF23A3409A438B071B0E8407E40EDD
:10CF5000A3401A430B4B032424021B198408A4008A
:10CF60001A5110BD00050050406100409C2800206F
:10CF70009428002099280020982800200063004071
:10CF800080E200E000E100E01CED00E070B5034647
:10CF90000C46002A01D10D4D00E0158828460021DD
:10CFA00010E0051206023543A8B25D5C6840050634
:10CFB0002D0F684005034540A8B205062D0D6D00F4
:10CFC0006840491CA142ECD370BD0000FFFF000087
:10CFD00070B506460C46154629462046FDF7CFF9A2
:10CFE00070BDF8B55A480078002800D1F8BD5948FE
:10CFF0000068002801D1012000E0002005465648C5
:10D000000068002801D1012000E00020064600BF92
:10D01000002D14D1684651DF0446052C01D10125AD
:10D020000CE0002C06D000BF4CA269212046FDF781
:10D0300099F903E0474900980968884700BF002E26
:10D040001AD154480088009069465348006860DF50
:10D050000446052C01D101260DE0002C06D000BFAE
:10D060003EA280212046FDF77DF904E04A48006891
:10D0700039490968884700BF002D02D0002E00D032
:10D0800000E0C5E700BF00BFB0E7FFB581B00C46C8
:10D0900016461F46002C02D1072005B0F0BD2046E1
:10D0A0008107890F002901D1012100E00021002919
:10D0B00001D10720F1E73848046036480680374838
:10D0C00007603749019810DF0546002D01D028463A
:10D0D000E3E701201E490870162026DFDDE710B5C2
:10D0E00011DF0446002C01D0012000E00020184987
:10D0F0000870204610BD0146002901D10E2070475E
:10D10000154801600020FAE70146002901D10E20F0
:10D110007047104801600020FAE770B51F480068AA
:10D12000002811D01D4800688047044600BF2546EE
:10D13000002D07D000BF09A2FF2133312846FDF79B
:10D1400011F900BF00BF01E0FFF74BFF70BD000009
:10D15000AA280020B0280020AC2800202E2E5C2E0B
:10D160002E5C2E2E5C2E2E5C2E2E5C536F75726301
:10D17000655C73645F636F6D6D6F6E5C736F667417
:10D180006465766963655F68616E646C65722E6361
:10D1900000000000A8280020A4280020A0280020CB
:10D1A000D1CF0300002318214143FE4A53541821D4
:10D1B000414389184B600123182141438918CB60F2
:10D1C00000231821414389180B6118214143891814
:10D1D0004B611821414389188B60704710B50020BE
:10D1E000F1490860F1490860EE49091F087048706C
:10D1F0008870002403E02046FFF7D4FF641C0A2C4B
:10D20000F9D310BDFFB581B004460F46154603267D
:10D21000E648006800280BD1002D06D104980028AC
:10D2200003D10220E149086002E00120DF490860E3
:10D23000DE480068030002F086F907BE05223F655C
:10D240008AA6BE0001200007406901231B071B6955
:10D250009BB2584300900120000700690004820C33
:10D2600001200007006980B278430146009821DF61
:10D270000646002E02D10220CC4908609CE03846C8
:10D2800020DF0646002E16D1002D11D1049800286B
:10D290000AD12078042803D10720C44908600AE095
:10D2A0000520C249086006E00420C049086002E089
:10D2B0000320BE4908607FE0012212075269012362
:10D2C0001B071B699BB25A431146012212071269C0
:10D2D00092B27A4310462A4621DF0646002E10D12C
:10D2E000049800280AD12078042803D10620AF49E9
:10D2F000086006E00520AD49086002E00420AB4963
:10D30000086059E001221207526901231B071B69BB
:10D310009BB25A43AB00D2186368D118012212079E
:10D32000126992B27A43AB00D2186368D018049A9B
:10D3300021DF0646002E09D12078042803D10620DB
:10D340009A49086002E005209849086034E001210C
:10D350000907096989B27943AB00C81861688A086E
:10D360006169009121DF0646002E0BD1002D06D108
:10D370000498002803D107208C49086002E00620A9
:10D380008A49086018E001221207526901231B072D
:10D390001B699BB25A43104601221207126991B2CF
:10D3A00001F0F0FF009020DF0646002E02D107209A
:10D3B0007E49086000E000BF00BF304605B0F0BD08
:10D3C000F0B585B00F277748001F00781821484333
:10D3D0007449441825692078022804D0042823D0F1
:10D3E000052874D174E0606903906F480068860274
:10D3F0006068801B0490039880190390A0688019CE
:10D400004519012189020498884206D204988208AD
:10D410002846039921DF074605E0FF22013228460E
:10D42000039921DF07467BE01421E0684843604907
:10D430004018806804901421E06848435C49401813
:10D44000C06803901421E068484359494018406877
:10D4500002900298A84205D1039904984843616854
:10D46000884202D0E06802280DD10120000700693F
:10D4700081B2284601F086FF4B49096846183046BC
:10D4800020DF074622E001200007006981B228461C
:10D4900001F078FF064601200007006980B2704362
:10D4A000281A8008019001200007006980B2711CD1
:10D4B000484361684919401A800800903146204667
:10D4C000009B019AFFF79EFE074600BF28E026E07A
:10D4D00001200007006981B2284601F053FF06468B
:10D4E000A068411901200007006980B27043081A42
:10D4F00080080490A0684019616842180120000764
:10D50000006980B2711C4843801A8008039031463C
:10D510002046039B049AFFF775FE074600E000BF14
:10D5200000BF002F03D101201E49091F8870384613
:10D5300005B0F0BDFFB581B0064617460024194876
:10D54000001F40780A2841D01648001F007815496E
:10D55000091F49784018C4B20A2C02DB20460A3859
:10D56000C4B2182060430F490E541820604340187D
:10D570004761182060434118029805C80A61C860D5
:10D5800018206043074A80180499416018206043BE
:10D5900080180A9981600025101F807800280FD11B
:10D5A00008E00000B42E0020BC280020C428002081
:10D5B000A42F0020FFF704FF0546112D00D1002500
:10D5C000F7484078401CF649487000E0042528469A
:10D5D00005B0F0BD10B50024F1484078002807DD03
:10D5E000FFF7EEFE0446002C02D0112C00D10024DF
:10D5F000204610BDF8B50546E94800781821484393
:10D60000E749091D0E5C081F007818214843E449CA
:10D61000091D4018C068022802D1E24804680BE0E6
:10D62000DF48007818214843DD49091D4018C068CB
:10D6300014214843DC490C58D94800781821484344
:10D64000D749091D40184068091F00900978182221
:10D650005143D34A121D89184B69111F09781822AA
:10D660005143CF4A121D891808460C302A463146CC
:10D67000A047F8BDFEB505460026C94880780128B8
:10D680007ED10020C6498870C8480068082811D19A
:10D69000022D03D10020C549086002E00020C449E2
:10D6A0000870FFF797FF0646002E02D03046FFF7BE
:10D6B000A1FFFEBD022D02D0032D79D174E0B84840
:10D6C000007818214843B649091D4418B948006834
:10D6D000401CB84908602078022807D10846006835
:10D6E00080026168884201D3012000E000200746E3
:10D6F0002078052805D1AD480068072801D1012010
:10D7000000E0002002902078042805D1A748006896
:10D71000072801D1012000E0002001902078042892
:10D720000BD1A448006880026168884205D39F48F5
:10D730000068002801D1012000E00020009002983C
:10D74000002807D10198002804D10098002801D1B1
:10D75000002F1FD00020954908603046FFF74AFF90
:10D760008F490878FFF71EFD0020924908608C4819
:10D770004078401E8A49487008460078401C00E006
:10D7800019E00870084600780A2803DB084600788C
:10D790000A380870FFF71EFF0646002E02D03046FA
:10D7A000FFF728FF05E003E00D20FFF723FF00E06F
:10D7B00000BF00BF00BF00BF7BE710B5FFF70EFD45
:10D7C00000207D490860012000074069401E0121BA
:10D7D0000907096989B248437849086000207549FA
:10D7E000086000BF11E00022142141436E4B5A50E3
:10D7F00014214143C9188A6014214143C9180A61A0
:10D8000014214143C918CA60401C0028EBD00020F5
:10D8100064490860888001206549087000206349D8
:10D8200008600024204610BDF8B504460D4600BF30
:10D830005F480078002801D10820F8BD00BF002C07
:10D8400001D10E20F9E7002D01D10E20F5E7206867
:10D85000002801D10E20F0E701210907606809695D
:10D8600089B2884202D86068102801D20720E4E714
:10D87000A068002821D06168A06848434F49096822
:10D88000411801200007406901221207126992B273
:10D890005043814211D86168A068484301210907BB
:10D8A000096989B288420AD901221207616812699E
:10D8B00090B201F067FD002901D00720BDE7207973
:10D8C0008007800F002801D00720B6E73A4800689B
:10D8D000012801D10420B0E73748006828603748A4
:10D8E00000686860344869680068142250432E4A12
:10D8F00080184160304821680068142250432A4A49
:10D9000011502D486168006814225043264A80183F
:10D9100081602948A168006814225043224A801877
:10D92000C16000276668A1684E4300BF781C87B2BB
:10D9300001200007006980B2B04205D20120000733
:10D94000006980B2361A00E0002601200007006955
:10D9500080B21A4909684018184908600120000778
:10D96000006980B2B042E1D91348006814214843ED
:10D970000D494018076110480068401C0E490860B6
:10D9800000205AE73CB5034600BF0948007800284C
:10D9900001D108203CBD00BF002B11D10E20F9E7BA
:10D9A000B02E0020C8280020A42F0020C42800206A
:10D9B000C0280020BC280020B4280020B82800205F
:10D9C000002A01D10E20E5E71868002806D11424AA
:10D9D00018686043F74C2058002801D10720D9E788
:10D9E0005C68186801940090019C142518686843CD
:10D9F000F04D401980684843201801901424009885
:10DA000060432C460019C0681425009C6C43E94D06
:10DA10006419A46860431425009C6C43E54D6419A7
:10DA200064680019019CA04201D80720B2E7019C5C
:10DA30000098546010600020ACE7F8B504460E462C
:10DA400015461F4600BFDC480078002801D1082099
:10DA5000F8BD00BF002E01D10E20F9E7002C01D146
:10DA60000E20F5E72068002806D1142120684843DD
:10DA7000D0490858002801D10720E9E7142120687F
:10DA80004843CC494018C068142221685143C94A10
:10DA9000891889684843142221685143C54A891866
:10DAA000496840186168884201D80720D0E7002DF6
:10DAB00007D0142120684843BE4940188068A84216
:10DAC00001D20720C4E7E919142220685043B94A5B
:10DAD00080188068814201D90720B9E7304600F0FC
:10DAE000E7F9002804D0384600F0E2F9002801D117
:10DAF0001020ADE7606800F0DBF9002801D11020AC
:10DB0000A6E72B463246214602200097FFF712FD7A
:10DB10009EE7F8B504460E4615461F4600BFA648C8
:10DB20000078002801D10820F8BD00BF002E01D1E7
:10DB30000E20F9E7002C01D10E20F5E7206800281F
:10DB400006D11421206848439A490858002801D179
:10DB50000720E9E714212068484396494018C06827
:10DB6000142221685143934A891889684843142232
:10DB7000216851438F4A8918496840186168884272
:10DB800001D80720D0E7002D07D014212068484392
:10DB9000884940188068A84201D20720C4E7E919E3
:10DBA000142220685043834A80188068814201D93A
:10DBB0000720B9E7304600F07BF9002804D038464A
:10DBC00000F076F9002801D11020ADE7606800F080
:10DBD0006FF9002801D11020A6E72B4632462146D6
:10DBE00005200097FFF7A6FC9EE7FFB581B00C4625
:10DBF00015461E4600BF70480078002802D1082054
:10DC000005B0F0BD00BF002C01D10E20F8E701984F
:10DC1000002801D10E20F3E72068002806D1142146
:10DC20002068484363490858002801D10720E7E7E6
:10DC30001421206848435F494018C06814222168B5
:10DC400051435C4A8918896848431422216851432A
:10DC5000584A8918496840186168884201D80720E5
:10DC6000CEE7002D07D014212068484351494018C1
:10DC70008068A84201D20720C2E7A91914222068AF
:10DC800050434C4A80188068814201D90720B7E789
:10DC9000019800F00DF9002804D0304600F008F992
:10DCA000002801D11020ABE7606800F001F90028DE
:10DCB00001D11020A4E7606881192A46019801F07B
:10DCC000C9FA00951421206848433A490F580022A8
:10DCD00003212046019BB847002091E7F8B5044690
:10DCE0000D4600BF34480078002801D10820F8BD57
:10DCF00000BF002C01D10E20F9E72068002806D1D2
:10DD00001421206848432B490858002801D10720D6
:10DD1000EDE714212068484326494018C0681422C2
:10DD200021685143234A891889684843142221688D
:10DD30005143204A8918496840186168884201D8CF
:10DD40000720D4E7606800F0B3F8002801D1102064
:10DD5000CDE7142722687A43164FD21963685268B8
:10DD6000981A142322685A433B46D218916801F04E
:10DD700009FB002901D00720B9E700202B46024605
:10DD8000214600900420FFF7D5FB06463046AEE75B
:10DD9000014600BF08480078002801D108207047DC
:10DDA00000BF002901D10E20F9E70448407808603F
:10DDB0000020F4E7A42F0020C0280020B02E00206F
:10DDC000024600BF3F480078002801D10820704774
:10DDD00000BF002A01D10E20F9E7002901D10E2051
:10DDE000F5E71068002801D10E20F0E736480068FA
:10DDF000002801D00420EAE702200860324B1068B6
:10DE000018600020E3E7F8B504460D4617461E46A5
:10DE100000BF2C480078002801D10820F8BD00BFC1
:10DE2000002D01D10E20F9E7002C01D10E20F5E7DD
:10DE30002068022803D124480068002801D1072067
:10DE4000ECE7284600F034F8002804D0304600F013
:10DE50002FF8002801D11020E0E73B462A46214652
:10DE600002200096FFF766FBD8E7F8B504460D469A
:10DE700000BF14480078002801D10820F8BD00BF79
:10DE8000002C01D10E20F9E72068022803D10E48AA
:10DE90000068002801D10720F0E700202B46024649
:10DEA000214600900420FFF745FB06463046E5E793
:10DEB00001468807800F002801D10120704700200B
:10DEC000FCE70000C0280020C828002001B505E0BC
:10DED0000098401E00900348FCF780F90098002845
:10DEE000F6D108BDE703000004460D4616467F2222
:10DEF0003146094801F010FA002107486030C17727
:10DF000006490D80064804600846008804480068F9
:10DF100072B600BFFEE70000B82F0020D028002016
:10DF2000D428002001464888B74A1288904206DB70
:10DF30004888B54A5288904201DC01207047002091
:10DF4000FCE738B50546B1480088B14988423BD066
:10DF5000B0480078401CAF490870AF48007B097892
:10DF600088420FDBA849A948008875DF0446002CC9
:10DF700007D0A9488069002803D0A74881692046B6
:10DF8000884721E00020A3490870A348007C0028AE
:10DF90000FD03B219D48008876DF0446002C07D037
:10DFA0009D488069002803D09B48816920468847A6
:10DFB00000BF99484069002806D00020009096488C
:10DFC00041696846884700BF38BD70B505461C22C8
:10DFD00029469148FCF712F90020904908702868FA
:10DFE00000280BD008228848296801F033F98648B8
:10DFF0007ADF0446002C08D0204670BD82487BDFC3
:10E000000446002C01D02046F7E70020C0437F499A
:10E01000088000207F490870814A00218148FEF76E
:10E0200038FBEAE710B57F480068FEF7AAFB10BD91
:10E0300038B57D48FFF776FF002829D1774800786A
:10E0400000280AD074484069002820D000200090A1
:10E05000714841696846884719E06E480078002891
:10E0600002D16D48456801E06B4885680022294669
:10E070006C480068FEF754FB0446002C07D0664845
:10E080008069002803D064488169204688470AE0F7
:10E0900061484069002806D0012000905E4841692F
:10E0A0006846884700BF00205C49087038BD10B53D
:10E0B0000446A088554908800822214610315A4854
:10E0C00001F0C8F80020534908705348C08900285F
:10E0D00001D1FFF7ADFF10BD70B505460020C0436C
:10E0E0004A49088000204B4908704E480068FEF7F6
:10E0F00048FB0446002C07D047488069002803D01D
:10E10000454881692046884770BD70B50546AC1DFD
:10E1100020884149C989884220D1208B02281DD1FD
:10E1200000BF00BFA17EE27E120211430846C10774
:10E13000C90F002902D0FFF77BFF0FE039480068C4
:10E14000FEF71FFB0646002E07D0334880690028E3
:10E1500003D0314881693046884700BF70BD10B593
:10E1600004460822A11D304801F074F8FFF760FF53
:10E1700010BD10B504462088102806D0112808D0FC
:10E1800012280ED0502810D107E02046FFF78FFF4D
:10E190000CE02046FFF7A0FF08E02046FFF7B5FFA0
:10E1A00004E02046FFF7DBFF00E000BF00BF10BD2A
:10E1B00038B5044608222146134801F04BF81248AE
:10E1C0007ADF0546002D1CD11748FFF7ABFE00286B
:10E1D0000BD10120114908700B490C48008875DFEC
:10E1E000054601200B4908700BE00B4840690028E8
:10E1F00006D001200090084841696846884700BF62
:10E200000025284638BD0000D8280020E22800203C
:10E21000FFFF0000E028002038300020F028002018
:10E2200043DF0300EC280020E4280020F7B584B089
:10E2300004460F4606980678B01C1F2803DC207998
:10E24000801C1F2802DD0C2007B0F0BD1F20801BA2
:10E25000801E85B20295B11C781802A97DDF03905B
:10E260000398002801D00398EEE72068022808D11F
:10E2700068460089A84204DC0920019068460589A7
:10E280000BE0082001902079002804D02079A842D2
:10E2900001DC257901E068460589681CC2B2304678
:10E2A000711CCEB23A543046721CD6B20199395420
:10E2B00006980178A81C0818C1B2069801700020C1
:10E2C000C2E7F8B505460C462078001D1F2801DD81
:10E2D0000C20F8BD684679DF0646002E01D0304696
:10E2E000F7E703212278501C2070A95419212278C5
:10E2F000501C2070A954207841196846008800F00D
:10E300008BFA2178401820700020E2E7F8B5054626
:10E310000F4616461C466868002801D10720F8BD44
:10E320002078801C298840181F2801DD0C20F6E782
:10E330002878401CC1B22278501C2070B15421783A
:10E34000481C207077542A8823789819696800F04F
:10E3500081FF20782978401820700020DFE730B551
:10E3600003461078C01C1F2801DD0C2030BD02249C
:10E370001578681C10704C550A241578681C1070AC
:10E380004C551578681C10704B550020EEE7FFB512
:10E3900087B006461D46109C002006902078059008
:10E3A000002747E0B900706841180A886846028172
:10E3B00049884181002203A902A864DF04900498DF
:10E3C000002802D004980BB0F0BD6846017B099884
:10E3D00081422ED10698002801D0002000E00220C2
:10E3E000019020786946097B4118019808181F2878
:10E3F00001DD0C20E7E70698002809D12078401CB1
:10E4000020702278511C08982170A8540120069091
:10E410002078421903A902A864DF04900498002818
:10E4200001D00498CFE720786946097B4018207016
:10E4300000BF7F1C3088B842B4DC0698002806D0A4
:10E4400021780598401C081AC1B20598295400206B
:10E45000B9E7FFB581B0074615460A9E009602222D
:10E460003846049B0299FFF792FF0446002C02D025
:10E47000204605B0F0BD0096102229463846049B80
:10E48000FFF785FF0446002C01D02046F1E700206D
:10E49000EFE701460888062808DB08881922D20120
:10E4A000904205DD0888E14A904201D0072070477C
:10E4B0004888062808DB48881922D201904205DDE9
:10E4C0004888DA4A904201D00720F0E70888D74A06
:10E4D000904208D04888904205D008884A889042E7
:10E4E00001DD0720E3E70020E1E7F8B506460D4629
:10E4F00014462078801D1F2801D90C20F8BD304615
:10E50000FFF7C7FF0746002F01D03846F6E7052181
:10E510002278501C2070A95412212278501C20709F
:10E52000A95422785119308800F076F921784018E2
:10E53000207022785119708800F06EF92178401807
:10E5400020700020DAE7F8B505460E461446287913
:10E55000801CC7B22078801CC0191F2801DD0C2048
:10E56000F8BD781CC1B22278501C2070B154FF2134
:10E570002278501C2070B15422789119288800F01C
:10E580004BF9217840182070A88800280EDDA86873
:10E59000002801D10720E3E7AA8823789819A96801
:10E5A00000F058FE20782979401820700020D7E725
:10E5B000FEB507460E461446786B002801D10720A9
:10E5C000FEBD0020019032E0796B0C22019850438F
:10E5D0000D182879801CC0B200900098401CC1B270
:10E5E0002278501C2070B15416212278501C2070C3
:10E5F000B15422789119288800F00EF9217840183A
:10E600002070A88800280EDDA868002801D1072006
:10E61000D6E7AA8823789819A96800F01BFE20780D
:10E620002979401820700198401CC0B20190382010
:10E63000C15D01988142C7DC0020C1E7F8B50446FE
:10E640000F4616460025002030702068002809D0AB
:10E65000324639462046FFF7E9FD0546002D01D038
:10E660002846F8BD6079002808D031463846FFF7C3
:10E6700028FE0546002D01D02846F2E72089002813
:10E680000BDD33463A46012120460830FFF73EFEB7
:10E690000546002D01D02846E3E7206900280BD06D
:10E6A00000202169085632463946FFF758FE0546D4
:10E6B000002D01D02846D4E7A08A00280CDD3B4677
:10E6C00006220221204614300096FFF7C2FE0546BE
:10E6D000002D01D02846C4E7A08B00280CDD3B4666
:10E6E0000722032120461C300096FFF7B2FE0546A4
:10E6F000002D01D02846B4E7A08C00280CDD3B4655
:10E7000015221421204624300096FFF7A2FE05466C
:10E71000002D01D02846A4E7E06A002809D032463F
:10E720003946E06AFFF7E1FE0546002D01D0284694
:10E7300097E7206B002809D032463946206BFFF757
:10E7400002FF0546002D01D028468AE73820005DEB
:10E75000002809DD324639462046FFF729FF0546E5
:10E76000002D01D028467CE728467AE70146088933
:10E77000002808D0C868002805D0C868007804229E
:10E780001040002801D1072070470020FCE7014617
:10E790000889002801DD072070470020FCE7F3B559
:10E7A00093B00D460021129111911398002814D0B6
:10E7B0001398FFF7DBFF0446002C02D0204615B06B
:10E7C000F0BD12AA09A91398FFF738FF0446002CE0
:10E7D00001D02046F3E709AE00E00026002D13D05B
:10E7E0002846FFF7D4FF0446002C01D02046E6E778
:10E7F00011AA01A92846FFF721FF0446002C01D0E9
:10E800002046DCE701AF00E0002710A803793A4674
:10E81000017A304672DFD2E702460A70FF2000021A
:10E82000104000124870022070470000FFFF0000F7
:10E830000246082A0CD004DC002A07D0062A13D18D
:10E8400008E00B2A0AD00C2A0ED105E001207047FF
:10E850000220FCE70320FAE70420F8E7042901D1AD
:10E860000520F4E70620F2E70620F0E7F7B582B0CE
:10E8700006460D46022E2AD0032E40D1002D15D07B
:10E88000FE480088FE49884220D01321FB480088BA
:10E8900076DF044600BF2746002F06D000BFF9A24E
:10E8A000A4213846FBF75EFD00BF0FE00498FDF79A
:10E8B000EBF9044600BF2746002F06D000BFF1A2A7
:10E8C000AA213846FBF74EFD00BF00BF18E001212A
:10E8D0002846FFF7ADFF01900121F048019AFCF7AF
:10E8E0005FFF044600BF2746002F06D000BFE5A209
:10E8F000B5213846FBF736FD00BF00BF00E000BF82
:10E9000000BF05B0F0BDF8B506460C460321204611
:10E91000FFF78EFF07463A4603213046FCF740FFDB
:10E92000044600BF2546002D06D000BFD5A2CF214A
:10E930002846FBF717FD00BF00BFF8BDF3B589B04F
:10E940000D4600200590069007900890D448007866
:10E9500069460875D34A07CA02AB07C305A80390E6
:10E960002E790C2E13D0042E11D0032201210998E8
:10E97000FCF716FF044600BF2746002F06D000BF55
:10E98000C0A2ED213846FBF7EDFC00BF38E0AF68D0
:10E99000042E07D1002006900790384600F026FC90
:10E9A00008900CE0384600F021FC0690381D00F07D
:10E9B0001DFC07903846083000F018FC089002A8AB
:10E9C000FCF7D6F80446002C0BD001212046FFF7B7
:10E9D0002FFF01900121019A0998FCF7E1FE0446FE
:10E9E00000BF00BF0194019C002C07D000BFA5A26E
:10E9F000FF210E310198FBF7B5FC00BF00BF00BF3F
:10EA00000BB0F0BDF3B585B00C4600260120029096
:10EA1000A168049120798007800F002810D0217907
:10EA20008907890F0422561A002006E00022237964
:10EA30001B189B000499CA50401CB042F6D300BF7B
:10EA4000207980198008039002A8FCF793F9054605
:10EA500002212846FFF7ECFE01900221019A059859
:10EA6000FCF79EFE054600BF2F46002F07D000BFD3
:10EA700084A2FF2140313846FBF774FC00BF00BF81
:10EA800007B0F0BDF3B585B00D4628798007800F3B
:10EA9000002814D0032211460598FCF781FE044695
:10EAA00000BF2746002F07D000BF76A2FF215431B8
:10EAB0003846FBF757FC00BF00BF07B0F0BD287910
:10EAC000049079490498FDF7ABF80446002C04D073
:10EAD00021460598FFF717FFEFE7AE683146724809
:10EAE000049A006800F0B6FB0498FDF710F904469C
:10EAF000002C04D021460598FFF705FFDDE704A9A7
:10EB00006948FDF712F90446002C04D02146059807
:10EB1000FFF7F9FED1E703200190049880080290E6
:10EB200061480168039101A8FCF7CCF80446002C69
:10EB300018D128795D49096840185C4908600122AC
:10EB400003210598FCF72CFE044600BF2746002F42
:10EB500007D000BF4BA2FF2184313846FBF702FCEF
:10EB600000BF3CE0092C2AD1287950490968401897
:10EB70004E4908604E480078002830D04D48008843
:10EB8000401E4C49088008460088002827D1474885
:10EB900001680598FCF7D2FF044600BF2746002F06
:10EBA00007D000BF37A2FF2195313846FBF7DAFBCB
:10EBB00000BF00BF404800883E4908800FE03A4847
:10EBC0000068FDF761F80746002F03D03946059825
:10EBD000FFF799FE21460598FFF795FE00BF00BF9D
:10EBE0006BE770B504460D4634480068012804D030
:10EBF000022807D003280FD109E029462046FFF755
:10EC00009DFE0AE029462046FFF7FCFE05E0294666
:10EC10002046FFF737FF00E000BF00BF70BD10B512
:10EC2000044600BF17A2FF21D0312046FBF79AFB14
:10EC300000BF10BD30B587B01C21684600F069FBED
:10EC4000002000901E4801900120800302900321C3
:10EC5000684601730021C1810174002005901948A4
:10EC600006906846FFF7B1F9044600BF2546002D1F
:10EC70002ED000BF03A2FF21E73125E0122900209A
:10EC8000FFFF00002E2E5C6466755F7472616E7308
:10EC9000706F72745F626C652E63000068300020D4
:10ECA00000290020C0F503000C29002004290020C1
:10ECB000112900200A29002008290020FC28002012
:10ECC000CD0C00001FEC03002846FBF74BFB00BFF8
:10ECD00000BF07B030BD70B5FD480078002814D0E3
:10ECE00074DF044600BF2546002D06D000BFF94A58
:10ECF000F9492846FBF736FB00BF00BF152000F09E
:10ED00008FFA0020F249087000BF70BD70B5F3485B
:10ED10000088F349884211D01321F048008876DF3B
:10ED2000044600BF2546002D07D000BFE94AEA4946
:10ED3000FD312846FBF716FB00BF01E0FFF7CBFFD4
:10ED4000FFF770F9044600BF2546002D07D000BF2D
:10ED5000E04A6D21C9002846FBF704FB00BF00BF55
:10ED6000002070BDF8B506460D462868030000F087
:10ED7000EAFB0A4D5C6006223A697364798DFCF700
:10ED80002BF8044604212046FFF752FD0090042191
:10ED90003046009AFCF704FD044600BF2746002FCA
:10EDA00007D000BFCB4ACC4961393846FBF7DAFAC5
:10EDB00000BF00BF6BE0FFF7A9FF044600BF274676
:10EDC000002F07D000BFC34AC3495C393846FBF760
:10EDD000C9FA00BF00BFFCF739F80446002C01D087
:10EDE000FCF754F853E0FFF791FF044600BF2746B5
:10EDF000002F07D000BFB74AB7494F393846FBF755
:10EE0000B1FA00BF00BFFCF741F840E00120B5496E
:10EE100008602879002803D10420B349087003E072
:10EE2000A8680078B049087031E00220AD49086058
:10EE30002DE00320AB49086029E029463046FFF762
:10EE4000D0FE24E00120A9490870A888A8490880BC
:10EE5000A888A84908801AE00020A4490870A4499D
:10EE6000088014E0A44801683046FCF71AFE044606
:10EE700000BF2746002F07D000BF964A9649253984
:10EE80003846FBF76FFA00BF00BF00E000BF00BFCD
:10EE9000F8BD70B58E480078002816D1974873DF0A
:10EEA000044600BF2546002D07D000BF894A252112
:10EEB00009012846FBF756FA00BF00BF152000F0F5
:10EEC000AAF901208249087000BF70BD70B50546DF
:10EED0002888132825D004DC102807D011285FD1FA
:10EEE00011E0522848D055285AD12FE0162000F0C2
:10EEF00092F9152000F094F9A8887849088000203C
:10EF0000734908704DE0162000F08AF97C480078BB
:10EF1000002801D1FFF7BDFF0020C0436F490880E2
:10EF20003FE00023774A19466C4800887FDF04469B
:10EF300000BF2646002E07D000BF664A66492F3123
:10EF40003046FBF70FFA00BF00BF2AE0A87900287F
:10EF500011D113216148008876DF044600BF2646A0
:10EF6000002E07D000BF5B4A5B4937313046FBF7C4
:10EF7000F9F900BF00BF14E000221146574800888D
:10EF8000A9DF044600BF2646002E07D000BF514A25
:10EF900051493D313046FBF7E5F900BF00BF00E0C5
:10EFA00000BF00BF70BD10B504462046FFF7E1F872
:10EFB00021465548FCF748FD2046FFF787FF10BD66
:10EFC00010B5152000F01EF9162000F01BF91820CE
:10EFD00000F018F910BD3EB500BF68460078010981
:10EFE0000901491C009168460078F02188431030DF
:10EFF000009000BF072245A168467CDF044600BFA1
:10F000002546002D07D000BF324A334971312846CA
:10F01000FBF7A8F900BF00BF0020019002900C216F
:10F02000684681801821C18000210181FF21913132
:10F03000418101A87ADF044600BF2546002D07D094
:10F0400000BF244A24497B312846FBF78BF900BFD7
:10F0500000BF3EBD30B591B0062100912A4801792C
:10F06000684681712B4981803C2102A800F051F94A
:10F070000220029000216846417301210182694605
:10F0800005910121818301A90891002102A8FFF7C0
:10F0900086FB044600BF2546002D07D000BF0D4A61
:10F0A0000D4999312846FBF75DF900BF00BF1421D7
:10F0B000124800F02EF900201049087048600872CC
:10F0C000FF20913008820020488211B030BD00003E
:10F0D0001429002084EC03006202000012290020A1
:10F0E000FFFF0000FC28002000290020112900203B
:10F0F000082900200A29002004290020543000207B
:10F1000010290020F428002068300020444655547F
:10F11000617267003015000010B5044600BF434A15
:10F1200043492046FBF71EF900BF10BD7CB5002007
:10F13000009001903F4800903F48019069463F4849
:10F14000FCF72EFC044600BF2546002D07D000BF6B
:10F15000364AC92189002846FBF704F900BF00BFE1
:10F160007CBD3748007840084000401C3449087096
:10F170000846007802218843314908700846007823
:10F180001C2188430C302E49087008460078202145
:10F1900088432B49087007204870102088707047FA
:10F1A00010B5002027490860FFF70AFF2648FDF741
:10F1B000A2FF0446002C01D0204610BD2348FBF7D7
:10F1C000D4FCFCF705FD0446002C01D02046F4E7F2
:10F1D000FFF701FFFFF7AAFFFFF73CFFFFF72AFD4C
:10F1E000FFF7BFFFFFF755FE0020E6E7014608786E
:10F1F0004A78120210438A7812041043CA78120621
:10F200001043704703210522120707231B02D2185F
:10F210008300D1507047012181400D4A91607047B1
:10F22000012181400A4AD1607047000084EC03004C
:10F230001103000065ED030019F1030068300020A0
:10F24000F4280020FC280020A7EF03006DE803004D
:10F2500000050050F8B5042A2CD3830712D00B7890
:10F26000491C0370401C521E83070BD00B78491CAD
:10F270000370401C521E830704D00B78491C037096
:10F28000401C521E8B079B0F05D0C91ADF0020239C
:10F29000DE1B08C90AE0FAF7B1FFF8BD1D4608C930
:10F2A000FD401C46B4402C4310C0121F042AF5D266
:10F2B000F308C91A521EF0D40B78491C0370401C85
:10F2C000521EEAD40B78491C0370401C012AE4D476
:10F2D00009780170F8BD01E004C0091F0429FBD2C0
:10F2E0008B0701D50280801CC90700D002707047CF
:10F2F00000290BD0C30702D00270401C491E02290E
:10F3000004D3830702D50280801C891EE3E7002214
:10F31000EEE70022DFE70000F8B507460B46394666
:10F320001943890713D1164CE601042A0FD302CBE7
:10F330000D1B8D43354202D102C0121FF5E7CBB23F
:10F340000370401C521E002B13D0090AF7E7002A55
:10F3500014D01978521E5B1C0170401C002908D083
:10F36000002A0BD01978521E5B1C0170401C00292A
:10F37000EDD1002A02D01146FFF7C9FF3846F8BD8B
:10F3800001010101002203098B422CD3030A8B42A5
:10F3900011D300239C464EE003460B433CD400228D
:10F3A00043088B4231D303098B421CD3030A8B429F
:10F3B00001D394463FE0C3098B4201D3CB01C01A6D
:10F3C000524183098B4201D38B01C01A5241430938
:10F3D0008B4201D34B01C01A524103098B4201D326
:10F3E0000B01C01A5241C3088B4201D3CB00C01A93
:10F3F000524183088B4201D38B00C01A524143080B
:10F400008B4201D34B00C01A5241411A00D201462F
:10F410005241104670475DE0CA0F00D049420310C8
:10F4200000D34042534000229C4603098B422DD317
:10F43000030A8B4212D3FC22890112BA030A8B42BF
:10F440000CD3890192118B4208D3890192118B420E
:10F4500004D389013AD0921100E08909C3098B4293
:10F4600001D3CB01C01A524183098B4201D38B01D6
:10F47000C01A524143098B4201D34B01C01A524179
:10F4800003098B4201D30B01C01A5241C3088B42BE
:10F4900001D3CB00C01A524183088B4201D38B00A9
:10F4A000C01A5241D9D243088B4201D34B00C01A33
:10F4B0005241411A00D20146634652415B10104648
:10F4C00001D34042002B00D54942704763465B1090
:10F4D00000D3404201B50020C046C04602BD70477F
:10F4E00070477047754600F023F8AE460500694640
:10F4F0005346C008C000854618B020B5FAF71EFF75
:10F5000060BC00274908B6460026C0C5C0C5C0C5B6
:10F51000C0C5C0C5C0C5C0C5C0C5403D49008D46B9
:10F5200070470446C046C0462046FAF714FE000065
:10F53000004870479030002001491820ABBEFEE71C
:10F5400026000200704730B47446641E2578641C9F
:10F55000AB4204D3635D5B00E31830BC18471D4623
:10F56000F8E70000020000000000000000000000BA
:10F570000000000004000000000000000000000087
:10F5800000000000000000000000000001A80300CF
:10F590000000000000000000020000000000000069
:10F5A000000000000000000000000000000000005B
:10F5B00023D1BCEA5F782315DEEF121200000000B1
:10F5C000020000000000000000000000ECF5030055
:10F5D000002800201801000004A1030004F7030024
:10F5E00018290020D813000020A103000024F400F3
:10F5F000000000000000000000000000000000000B
:10F6000000000000000000000000000000000000FA
:10F6100000000000000000000000000000000000EA
:10F6200000000000000000000000000000000000DA
:10F6300000000000000000000000000000000000CA
:10F6400000000000000000000000000000000000BA
:10F6500000000000000000000000000000000000AA
:10F66000000000000000000000000000000000009A
:10F67000000000000000000000000000000000008A
:10F68000000000000000000000000000000000007A
:10F69000000000000000000000000000000000006A
:10F6A000000000000000000000000000000000005A
:10F6B000000000000000000000000000000000004A
:10F6C000000000000000000000000000000000003A
:10F6D000000000000000000000000000000000002A
:10F6E000000000000000000000000000000000001A
:10F6F0000000000000000000000000000000FFFF0C
:04F700000000000005
:020000041000EA
:0410140000A0030035
:040000050003A0C193
:00000001FF
